:1000000012C02CC02BC02AC029C028C00EC126C0D7
:1000100025C024C023C022C021C020C01FC01EC0D4
:100020001DC01CC01BC011241FBECFE5D4E0DEBF25
:10003000CDBF10E0A0E6B0E0E6ECF2E002C0059033
:100040000D92A637B107D9F720E0A6E7B0E001C0CE
:100050001D92AA37B207E1F7B2D033C1D1CFAA9A25
:100060000895AA980895AC980895AC9A08950F93AE
:100070001F93CF93DF9318161906DCF48C01C0E0B0
:10008000D0E0F1DF2FEF80E792E0215080409040F8
:10009000E1F700C00000E9DF2FEF80E792E0215098
:1000A00080409040E1F700C0000021960C171D072A
:1000B00041F7DF91CF911F910F910895AD98089569
:1000C000AD9A0895FBDF2FE789EA93E02150804045
:1000D0009040E1F700C00000F3DF2FE789EA93E0EA
:1000E000215080409040E1F700C000000895E6DF15
:1000F0002FE789EA93E0215080409040E1F700C06B
:100100000000DEDF2FE789EA93E021508040904035
:10011000E1F700C00000089595B388E0892785BB0A
:10012000089595B380E2892785BB08958EB58860D0
:100130008EBD89B7806189BF8AE78BBD81E18ABDA9
:100140008EB584608EBD089584B38C6384BB85B303
:10015000806385BB8A9882B382BBB898C09A0895A1
:1001600081E090E084DF2FEF81E19AE72150804029
:100170009040E1F700C0000081E090E090937900AA
:1001800080937800109261001092600082E090E00D
:100190006EDF98DF08951092790010927800109227
:1001A00077001092760082E090E090936100809357
:1001B000600086DF81E090E05ADF99DF0895B6DFC6
:1001C00064D0C2DF7894C2E0D0E001E010E083990F
:1001D000C7DF8299E0DF8091780090917900892BC8
:1001E00029F43FDFD0936100C093600080917800D4
:1001F00090917900019759F7849902C0B099E7CF9F
:100200008091760090917700892B09F728DF109371
:10021000610000936000F89482E690E042D0789408
:100220001093770000937600D2CF1F920F920FB6F3
:100230000F9211242F933F934F935F936F937F936C
:100240008F939F93AF93BF93EF93FF938091600041
:10025000909161008130910511F45EDF05C0892B1A
:1002600011F45FDF01C00000FF91EF91BF91AF91EA
:100270009F918F917F916F915F914F913F912F91BE
:100280000F900FBE0F901F90189510BC83E389B993
:1002900088E18AB986EB80BD08955D9BFECF8CB95D
:1002A0000895CF93DF93EC018881882329F021966C
:1002B000F4DF89918111FCCF8DE0EFDFDF91CF91E9
:0602C0000895F894FFCF41
:1002C60002004154442B3338303937323236353414
:0602D60034373B0D00006F
:00000001FF
